:020000040800F2
:10000000480700209D010008470E00083B04000837
:10001000450E000861030008F5100008000000000C
:10002000000000000000000000000000810F000838
:100030003904000800000000B30E0008830F000818
:10004000B7010008B7010008B7010008B7010008B0
:10005000B7010008B7010008B7010008B7010008A0
:10006000B7010008B7010008B7010008B701000890
:10007000B7010008B7010008C9030008B70100086C
:10008000B7010008B7010008B7010008B701000870
:10009000B7010008B7010008B7010008B701000860
:1000A000B7010008B7010008B7010008B701000850
:1000B000B7010008B1100008B7010008B701000837
:1000C000B7010008B7010008B7010008B701000830
:1000D000B7010008B7010008B7010008CD100008FB
:1000E000B7010008B7010008B7010008B701000810
:1000F000B7010008B7010008B7010008B701000800
:10010000B7010008B7010008B7010008B7010008EF
:10011000B7010008B7010008B7010008B7010008DF
:10012000E1030008B7010008B7010008B7010008A3
:10013000B7010008B7010008B7010008B7010008BF
:10014000B7010008B7010008B7010008B7010008AF
:10015000B7010008B7010008B7010008B70100089F
:10016000B7010008B7010008B7010008B70100088F
:10017000B7010008B7010008B7010008000000003F
:10018000B7010008B7010008DFF80CD000F040F814
:1001900000480047B514000848070020064880477B
:1001A00006480047FEE7FEE7FEE7FEE7FEE7FEE75C
:1001B000FEE7FEE7FEE7FEE75D10000889010008A4
:1001C000D2B201E000F8012B491EFBD27047002299
:1001D000F6E710B513460A4604461946FFF7F0FF46
:1001E000204610BD30B50B460146002020220124D8
:1001F00009E021FA02F59D4205D303FA02F5491BF5
:1002000004FA02F52844151EA2F10102F1DC30BD0A
:10021000064C074D06E0E06840F0010394E8070053
:1002200098471034AC42F6D3FFF7B2FF0816000827
:100230002816000810B51C4C6421E06801F026F96E
:100240002169626902EB4102491C216110806080D2
:10025000164962884FF4702393FAA3F30020B3FA8F
:1002600083F320FA03F301EB83018B686FF30B0335
:1002700013438B600E494A6982F480524A612169B6
:1002800064290AD120610B49A1600B492378A1F1AF
:10029000C8022BB1C4E9052120700848606010BD78
:1002A000C4E905120120F7E70000002000740040B7
:1002B000000C02406503000880020020490E00087F
:1002C00070B5244D214A214C2978083220488850A5
:1002D0001E492A780C312048505000F1C8011B48B3
:1002E0002A78103012582A781150642200212046B2
:1002F00000F064F928782058297840F48020605074
:100300002020A0601020A0600820A060287820583D
:10031000297820F40020605028782058297840F06F
:10032000100060500021204600F03EF908484C388B
:10033000816841F0010181600848016841F00101D4
:100340000160C16841F00101C16070BD00640240FC
:100350004C200140D0150008280000200004004077
:10036000FEE7000038B5134C6421A06901F08EF857
:1003700011A10968009140F6B831484340F6FF7179
:10038000B0FBF1F082B20DA1684600F0B5FE04F1B9
:100390001C009DF8001001709DF8011041709DF83F
:1003A000021081709DF80310C17001F0DFF805485C
:1003B000A06038BD0000002030303030253034756A
:1003C00000000000490E000804484FF00061816001
:1003D0004910816049108160704700000060024050
:1003E0000D482021816010218160082181600B4926
:1003F0004A6982F400424A6109490978405810F478
:10040000002F084801D0084900E008490160094967
:10041000074808607047000000640240000C02407A
:10042000E81500080C00002028000020F000002043
:1004300035020008040000207047FEE730B5134C79
:100440004B680122A468124D04F00104AD6805F068
:1004500001052C430F4DAD6805F001052C4302D07A
:100460000022104630BD0C4D53B10C681C43D1E93D
:1004700002310B4341681C4329400C434460F0E7C0
:10048000436809682B400B434360EAE700200140C2
:100490000021014000220140E010FCFF30B58368DC
:1004A000012213F0010F02D00022104630BD8C68EB
:1004B0000B6823434468054D2C4023434360836805
:1004C000496823F400630B438360EEE7FFFEFFFC03
:1004D00030B54A688468012314F0010F02D000236C
:1004E000184630BD32B18C682243446824F4684415
:1004F000224302E0426822F468424260D1E90324C8
:1005000022438468074D2C400D6805F070652C432C
:10051000224382604968C26A22F470020A43C262BE
:10052000DEE70000FDFCFFC0044908B50A6802438D
:100530000A6009680140009108BD0000303802409F
:10054000044908B50A6802430A600968014000913D
:1005500008BD00003038024070B5012401F01001E0
:100560005568066804FA01F3B3430ED07DB11368F1
:100570002B43D2E9025215432B4302688B4040F6CD
:10058000FA758D40AA4313430AE0002409E003688A
:10059000FA258D40AB431568D26815438D402B4337
:1005A0000360204670BD0000034A515C425842F08F
:1005B0000102425070470000D0150008044B001D96
:1005C000595C0B586FF30F0313430B507047000037
:1005D000D0150008F0B50A68032492FAA2F2B2FA24
:1005E00082F30F257EE0324601269E40324078D0CD
:1005F000D1F804E0066892FAA2F7B7FA87F74FEA53
:10060000470C04FA0CF7BE4392FAA2F7B7FA87F741
:100610007F000EFA07FE46EA0E0606604E68012EBF
:1006200001D0022E15D1D1F808E0866892FAA2F71F
:10063000B7FA87F74FEA470C04FA0CF7BE4392FA71
:10064000A2F7B7FA87F77F000EFA07FE46EA0E0612
:100650008660D1F810C0C66892FAA2F7B7FA87F799
:100660007F0004FA07FE92FAA2F7B7FA87F77F0035
:1006700026EA0E060CFA07FC46EA0C06C6604E682F
:10068000022E2ED192FAA2F6B6FA86F6082E4E69FE
:1006900013D2076A92FAA2FCBCFA8CFC4FEA8C0CCB
:1006A00005FA0CFC92FAA2F2B2FA82F2920027EA60
:1006B0000C0796403743076213E0476A120A92FA22
:1006C000A2FCBCFA8CFC4FEA8C0C05FA0CFC92FAEA
:1006D000A2F2B2FA82F2920027EA0C079640374360
:1006E00047625B1C0A681646DA407FF47CAF4A68B2
:1006F000012A01D0022A07D1CB68416832469143D2
:1007000006FB03F2114341600120F0BD4FF47A7102
:10071000B0FBF1F14FF0E020491E41610021816101
:1007200005210161704710B5044600F0EDFB206023
:1007300000F0C0FB606000F0CBFBA060606800F0E0
:10074000D5FBE06010BD0000014908607047000063
:1007500024000020F0B50268254B264D264E274F79
:10076000274C4FF0804C984209D0604507D0A842F2
:1007700005D0B04203D0B84201D0A04205D1D1F893
:1007800004E022F0700242EA0E0298421BD060455B
:1007900019D0A84217D0B04215D0B84213D0A04209
:1007A00011D0184DA8420ED0174DA8420BD0174DAE
:1007B000A84208D0164DA84205D0164DA84202D036
:1007C000154DA84203D1CD6822F440722A4302603D
:1007D0008A68C2620A888262984201D0A04201D12E
:1007E000097C0163416941F0010141610120F0BDD3
:1007F000000001400004004000080040000C0040E0
:100800000004014000400140004401400048014014
:1008100000180040001C0040002000407FB5044646
:10082000C0680D460026C0F34030C0BBE968686868
:10083000AA690843296911430843E16849F20C6237
:1008400091430843E060A868216921F440510143C5
:1008500021616869616921F4407101436161684601
:10086000FFF761FF0F48844208D00F4884420DD043
:100870000E4884420AD00E48844201D1039906E012
:100880000C48844202D00C48844208D1029931B10C
:100890002B6823B101262046AA6900F00FF804B0A6
:1008A000304670BD00100140004400400048004048
:1008B00000140140004C004000500040F0B564249A
:1008C000322501EBC10606EB0111B2F5004F2AD02B
:1008D0009A00B1FBF2F3B3FBF4F3B1FBF2F66FF065
:1008E00018077B4306EB8303B1FBF2F605EB03131A
:1008F000B3FBF4F3B6FBF4F603F0F00303EB0613DB
:10090000B1FBF2F6B1FBF2F1B1FBF4F1794306EB86
:10091000810105EB0111B1FBF4F101F00F01194464
:1009200089B28160F0BD5A00B1FBF2F6B6FBF4F675
:10093000B1FBF2F7B1FBF2F36FF0180C06FB0CF60B
:1009400007EB860605EBC606B3FBF4F3B6FBF4F63D
:100950001B0106F0F80603EB4603B1FBF2F6B1FB10
:10096000F2F1B1FBF4F101FB0CF106EB810105EBB7
:10097000C101B1FBF4F101F00701D0E770B594B00B
:1009800000240F941094142168461194FFF71FFC63
:100990000B940C940D94182105A80E94FFF717FCE6
:1009A0006348016841F480710160006800F4807060
:1009B00012905F481438016841F00101016000683D
:1009C00005A900F001001290022005900320069076
:1009D00009945848FFF7FEFD58495748097841588F
:1009E000564A21F060611278815054490978415883
:1009F000524A21F0C001127881505049097841587B
:100A00004E4A21F4403141F40031127881504B4973
:100A100009784158494A21F4907141F48071127863
:100A20008150464909784158444A21F400711278AE
:100A30008150424909784158404A41F48061127816
:100A400081503E49097841583C4A21F4C05141F453
:100A5000006112788150394909784158374A21F4A8
:100A6000C04141F400511278815034480178324835
:100A70001430085820F00401304802782E48143011
:100A800011502F4D0F9410940FA928461194FFF781
:100A900005FD4FF0C050CDE90004C6140294CDE925
:100AA000034669462846FFF713FDA86840F48060B6
:100AB000A860686820F0200068604FF48030CDE9BD
:100AC0000B040BA91F48FFF7B9FCA86840F0805041
:100AD000A86096FAA6F16815B1FA81F1C84005EB55
:100AE00080004FF0F873C16A21F01F0141F001014D
:100AF000C1624FF0007090FAA0F1B1FA81F1C840E4
:100B000005EB800193FAA3F53003B5FA85F520FAD9
:100B100005F50726AE4093FAA3F3CA68B3FA83F348
:100B2000D840B24384402243CA6014B070BD000074
:100B3000443802400000024000640240D81500081A
:100B4000002001400023014010B58CB00024069421
:100B500007940894182168460994FFF738FB134856
:100B6000016841F000510160006800F000500A90F7
:100B70000E481038016841F00101016000686946C3
:100B800000F001000A9010200090032001900494CE
:100B90000748FFF71FFD3820CDE9060406AA0549DE
:100BA00005480994FFF7D8FC0CB010BD403802404E
:100BB00000000240010010020074004010B54FF424
:100BC0008000FFF7BDFC4FF40010FFF7B9FC0F4C9D
:100BD00020680022C0F30220114600F041F90146CE
:100BE0000E2000F056F90E2000F02FF920680022A8
:100BF000C0F30220114600F033F90146382000F01E
:100C000048F9BDE81040382000F01FB90CED00E0B5
:100C100000B587B018216846FFF7D9FA8020FFF7A2
:100C200083FC0120FFF780FC0820FFF77DFC0848CB
:100C30004FF470410A048261009101210191002169
:100C40000291039104916946FFF7C4FC07B000BD0F
:100C5000000C024010B586B014216846FFF7B7FAC1
:100C60001E48016841F002010160006800F00200C6
:100C700005901B480068C0F30220011D072901D21E
:100C8000002000E0C01E002202FA00F10801154910
:100C900081F800044FF0E0214FF00050C1F800014E
:100CA0000320ADF8000040F63400CDE901200E4CE1
:100CB000694620460392FFF74DFDA06844F2070104
:100CC0008843A060606820F0700040F02000606001
:100CD000A06820F08000A06006B010BD403802403F
:100CE0000CED00E01DE000E00004004010B58EB007
:100CF0001C216846FFF76BFA182107A8FFF767FA6F
:100D00004948016841F480210160006800F48020B6
:100D10000D9045481038016841F0080101600068F5
:100D2000002400F008000D904FF44070079002205E
:100D300008900320CDE9090401200B9007200C90B6
:100D400007A93A48FFF746FC3A483949C2788A5819
:100D5000C37822F0606242F00062CA50C2788A58BA
:100D6000C37822F0C00242F04002CA50C2788A58CA
:100D7000C37822F44032CA50C2788A58C37822F429
:100D80009072CA50C2788A58C37822F40072CA504E
:100D9000C2788A58C37842F48062CA50C2788A58AE
:100DA000C37822F4C052CA50C2788A58C37822F459
:100DB000C042CA501E49C27814315258C07822F03D
:100DC000040242501C480068C0F30220011D07299C
:100DD00001D2002000E0C01E04FA00F1080117490A
:100DE00081F80004154980202339C1F800014FF42F
:100DF0001650CDE9000408200294CDE90340059483
:100E000006940F4C69462046FFF708FD206920F440
:100E100090402061606920F02A006061E06840F441
:100E20000050E0600EB010BD40380240000C02409F
:100E300000600240E01500080CED00E027E000E053
:100E400000480040FEE77047704700F01F02012194
:100E500091404009800000F1E020C0F80011704787
:100E600030B500F00703C3F10704042C00D90424B3
:100E7000181D072801D2002300E0DB1E012505FA1A
:100E800004F0401E084098409D406D1E15402843C8
:100E900030BD0907090E002806DA00F00F0000F146
:100EA000E02080F8141D704700F1E02080F8001465
:100EB0007047704704490968044A01F0F0010909C4
:100EC000515CC8407047000008380240F015000827
:100ED00004490968044A01F4E05102EB91210978C0
:100EE000C8407047083802400016000804490968E5
:100EF000044A01F4604102EB51310978C84070475F
:100F000008380240001600080748006810F00C017D
:100F1000064807D0042904D0082903D1082000F08E
:100F200009B8034870470000083802400024F40064
:100F300000127A0010B5104A04460020116811F41E
:100F400080030E4903D0B3F5800F00D14910082C5F
:100F500011D1106800F03F00B1FBF0F01168C1F34F
:100F6000881148431168012201F4403102EB11411C
:100F70004900B0FBF1F010BD043802400024F40039
:100F800070474FF0E020016921F480310161704722
:100F90002C4810B5016821F00F0141F005010160F6
:100FA00000682948016841F48041016027480168D0
:100FB00041F4803101600168C1F340410029FAD059
:100FC0002249234A091D0B68224C23401A430A6018
:100FD0000A6822F440320A60016841F080710160C1
:100FE0000168C1F340610029FAD01848083001684F
:100FF00021F0F0010160016821F4E05141F4A051B9
:101000000160016821F4604141F400410160016820
:1010100021F0030141F002010160016801F00C01BF
:101020000829FAD10C4C2046FFF770FB4FF0E02165
:10103000086940F0040008612046BDE81040FFF751
:1010400083BB0000003C02400070004000380240BA
:10105000085440000080BFFF007A030A104801686E
:1010600041F4700101600F48016841F00101016025
:101070000C4A00210832116002680B4B1A400260D2
:10108000031D0A4A1A60026822F4802202600548A1
:101090000C30016002495806803908607047000032
:1010A00088ED00E000380240FFFFF6FE103000241B
:1010B00004496FF0010008610348416981F400515F
:1010C0004161704700040040000C024007486FF087
:1010D00040010160C16821F04001C160C16821F098
:1010E0000801C1600249C00488617047004800409F
:1010F000000C0240FEE700000FB4084B10B504A935
:1011000002AA039800F01CF8044602A9002000F08F
:10111000B8F9204610BC5DF814FB000083140008E9
:1011200002E008C8121F08C1002AFAD170477047B0
:10113000002001E001C1121F002AFBD1704700000E
:101140002DE9FF4F8BB088460546002606E025288E
:101150000BD0DDE90D1290476D1C761C2878002815
:10116000F5D10FB03046BDE8F08F0024A146A2466D
:101170000122AE4900E0044315F8013F203B02FA8A
:1011800003F00842F7D128782A2810D06FF02F02F8
:101190002878A0F13001092915D809EB890102EB63
:1011A000410144F0020400EB01096D1CF0E758F81E
:1011B000041B5FEA010903D544F40054C9F1000996
:1011C00044F002046D1C28782E2817D115F8010F61
:1011D00044F004042A280ED06FF02F022878A0F1E2
:1011E000300109290AD80AEB8A0102EB410100EB20
:1011F000010A6D1CF2E758F804AB6D1C28786C28C6
:101200000FD006DC4C2817D068280DD06A2814D1DE
:1012100004E0742810D07A280FD10DE044F40014B3
:101220000AE044F4801401E044F4401469788142F7
:1012300002D104F580146D1C6D1C2878692865D0D6
:1012400006DC00288DD0632827D0642806D15DE015
:101250006E2808D073282AD0752877D0DDE90D12C2
:101260009047761CE0E0C4F30250022809D003281E
:101270000DD0D8F8001004280DD00E6008F1040835
:10128000D2E0D8F80010F217C1E90062F6E7D8F80A
:1012900000100E80F2E70E70F0E718F8041B8DF8CE
:1012A000001000208DF80100EB46012003E058F803
:1012B00004BB4FF0FF3061074FF0000701D40AE094
:1012C0007F1C57450DDA8742FADB1BF8071000290F
:1012D000F6D106E07F1C8742FCDB1BF807100029D3
:1012E000F8D1DDE90D23A9EB07008146214600F086
:1012F000B1F83044C61904E0DDE90D121BF8010B0A
:1013000090477F1EF8D22146484688E058F8040BE3
:10131000C4F302514FF00A0B032900D100B2042993
:1013200000D140B2002802DA40422D2102E021051E
:1013300005D52B218DF82410012104E006E0E107FA
:1013400010D02021F6E708AF089113E058F8040BFD
:10135000C4F302514FF00A0B032900D180B20429D3
:1013600000D1C0B20021EEE75946FEF73BFF303115
:1013700007F8011D0028F7D1ADEB070000F1200BA5
:10138000600702D524F4803401E04FF0010ADA4509
:1013900002DDAAEB0B0000E00020824600EB0B010F
:1013A00008980144A9EB01000A90E00306D4DDE9A6
:1013B0000D2321460A9800F04DF806444FF000092D
:1013C00008E009A911F80900DDE90D12904709F1BB
:1013D0000109761C08998945F3DBE0030CD5DDE9AA
:1013E0000D2321460A9800F035F8064404E0DDE9B3
:1013F0000D1230209047761CBAF10001AAF1010AC3
:10140000F5DC05E0DDE90D1217F8010B9047761CBD
:10141000BBF10001ABF1010BF4DC0A982146DDE9D8
:101420000D2300F005F806446D1C97E6092801001D
:101430002DE9F041044600251E461746880404D4D1
:1014400005E039462020B0476D1C641EF9D52846BA
:10145000BDE8F0812DE9F041044600251E46904686
:10146000C80301D5302700E02027880404D505E013
:1014700041463846B0476D1C641EF9D52846BDE884
:10148000F0810A68531C0B601070704710B5002380
:1014900009B1002207E001215FF0000230F812409C
:1014A000521C234492B28A42F8D3B3FBF1F080B2CB
:1014B00010BD0000254808B5016841F48041016075
:1014C000006800F4804000902048001F016841F04F
:1014D0008051016000681E4900F08050009008684B
:1014E0004FF6FF0210401B4A40F4C06010430860F2
:1014F000FFF74EFDFFF78CFBFFF760FBFFF724FBC8
:10150000FFF73CFAFFF7A6FBFFF7F0FB1248016874
:1015100021F004010160016841F0010101600F4800
:10152000416941F080014161011D0D480D4BC278B8
:10153000D150C278181D0C491150FEF7C1FE0A4C5B
:101540001C3C60688047A0688047FAE74438024046
:101550000CED00E00000FA05007400400048004077
:10156000D0150008086002401C000020144910B586
:101570004FF4804088611448124CC1786158C0789B
:1015800021F001012150082203212046FFF716F81F
:101590004FF00060A0604010A0604010A0600321E8
:1015A0002046FFF701F809486FF040010160C1686B
:1015B00041F04001C160C16841F00801C16010BD47
:1015C000000C024000600240D015000800480040B6
:1015D000102840587088A0B8102840587088A0B8CB
:1015E000102840587088A0B8102840587088A0B8BB
:1015F00000000000000000000102030406070809C3
:10160000000000000102030428160008000000206A
:1016100028000000201100085016000828000020B3
:10162000200700003011000800000000490E0008EB
:10163000490E00082800002000000000B80100202A
:101640008002002030313233206D560D0024F4002A
:040000050800018965
:00000001FF
